:100000000A128A11FC2F00308A000408840A820731
:100010000034FC346034DA34F2346634B634BE343E
:06002000E034FE34F6346A
:100F84000630831603139F0005148601F301013014
:100F940084000A128A1103200A128A11831203138D
:100FA40086007308013E84000A128A1103200A1283
:100FB4008A11831203138600051CE12FE22FD32F1D
:100FC4000630F2001330F100AD30F000F00BE82FE2
:100FD400F10BE82FF20BE82FEF2F0130F3070A3063
:100FE4007302031CF62FF72FD32FF301D32F0A120A
:0C0FF4008A11002883010A128A11C22F02
:02400E00713D02
:00000001FF
