:02000000712865
:1000060083120313F8010830FC00700DF80D740814
:10001600F80203181028F8070310F00DFC0B082847
:020026000800D0
:1000280083160313290883129900831698181D282C
:04003800192808007B
:0E003C008316031324088A002308820008009C
:10004A001E208A110A128000840AA30A0319A40A2C
:08005A00F003031D2528080036
:10006200831203138C1A362831281A08F00008006C
:10007200643083120313F40083162808F00003206F
:10008200303070078316A90014200A30F4002808C3
:10009200F00003200A30F40003207808F00030302A
:1000A20070078316A90014200A30F4002808F00013
:1000B20003207808F000303070078316A90014205E
:0200C200080034
:1000C40083160313280884000008031970282808DD
:0E00D40084000008A9001420A80A6228080071
:1000E20014218130831603139900181518128312F4
:1000F20098178316981683121816FF3083168500F8
:100102008E309F002030A8006220312070088316B4
:10011200A5006630A80062202508A9001420A0309E
:10012200A800622030302502F2007208A70072088F
:10013200F000F00D7010F00D7010F00D70108130A5
:10014200700483129F000630FD00FD0BA6280000FC
:100152001F151F1DAD28AA281E088316A6004930A8
:10016200A80062202608A80039206330A800622077
:040172008628BA28F9
:1002280020308400503083120313F000C03083164E
:10023800A3000030A4002520A030840003308312DE
:10024800F00010308316A3000130A4002520080018
:10018000533469347334743465346D3461342034D9
:100190006C346934733474346F342E3420345334F3
:1001A00065346C3465346334633469346F346E346D
:1001B00065342034633461346E3461346C342034FB
:1001C000283430342D34373429343A340D340A3459
:0201D0000034F9
:1001D200563461346C346F347234203428343834F9
:1001E200203462346934743473342C3420346434EB
:1001F2006534633469346D3461346C3429343A348F
:040202002034003470
:060206000D340A3400343F
:10020C000D340A34433461346E3461346C343A3412
:04021C002034003456
:060220000D340A34003425
:02400E004A2F37
:00000001FF
